{
    "contractName": "KYC",
    "abi": [
        {
            "anonymous": false,
            "inputs": [
                {
                    "indexed": true,
                    "internalType": "address",
                    "name": "previousOwner",
                    "type": "address"
                },
                {
                    "indexed": true,
                    "internalType": "address",
                    "name": "newOwner",
                    "type": "address"
                }
            ],
            "name": "OwnershipTransferred",
            "type": "event"
        },
        {
            "inputs": [
                {
                    "internalType": "address",
                    "name": "_addr",
                    "type": "address"
                }
            ],
            "name": "allowAddress",
            "outputs": [],
            "stateMutability": "nonpayable",
            "type": "function"
        },
        {
            "inputs": [
                {
                    "internalType": "address",
                    "name": "",
                    "type": "address"
                }
            ],
            "name": "allowed",
            "outputs": [
                {
                    "internalType": "bool",
                    "name": "",
                    "type": "bool"
                }
            ],
            "stateMutability": "view",
            "type": "function"
        },
        {
            "inputs": [],
            "name": "owner",
            "outputs": [
                {
                    "internalType": "address",
                    "name": "",
                    "type": "address"
                }
            ],
            "stateMutability": "view",
            "type": "function"
        },
        {
            "inputs": [],
            "name": "renounceOwnership",
            "outputs": [],
            "stateMutability": "nonpayable",
            "type": "function"
        },
        {
            "inputs": [
                {
                    "internalType": "address",
                    "name": "_addr",
                    "type": "address"
                }
            ],
            "name": "revokeAddress",
            "outputs": [],
            "stateMutability": "nonpayable",
            "type": "function"
        },
        {
            "inputs": [
                {
                    "internalType": "address",
                    "name": "newOwner",
                    "type": "address"
                }
            ],
            "name": "transferOwnership",
            "outputs": [],
            "stateMutability": "nonpayable",
            "type": "function"
        }
    ],
    "bytecode": "608060405234801561001057600080fd5b5061001a3361001f565b61006f565b600080546001600160a01b038381166001600160a01b0319831681178455604051919092169283917f8be0079c531659141344cd1fd0a4f28419497f9722a3daafe3b4186f6b6457e09190a35050565b6102f78061007e6000396000f3fe608060405234801561001057600080fd5b50600436106100625760003560e01c806308af4d8814610067578063317a7aec1461007c578063715018a61461008f5780638da5cb5b14610097578063d63a8e11146100b7578063f2fde38b146100ea575b600080fd5b61007a610075366004610291565b6100fd565b005b61007a61008a366004610291565b61012c565b61007a610155565b6000546040516001600160a01b0390911681526020015b60405180910390f35b6100da6100c5366004610291565b60016020526000908152604090205460ff1681565b60405190151581526020016100ae565b61007a6100f8366004610291565b610169565b6101056101e7565b6001600160a01b03166000908152600160208190526040909120805460ff19169091179055565b6101346101e7565b6001600160a01b03166000908152600160205260409020805460ff19169055565b61015d6101e7565b6101676000610241565b565b6101716101e7565b6001600160a01b0381166101db5760405162461bcd60e51b815260206004820152602660248201527f4f776e61626c653a206e6577206f776e657220697320746865207a65726f206160448201526564647265737360d01b60648201526084015b60405180910390fd5b6101e481610241565b50565b6000546001600160a01b031633146101675760405162461bcd60e51b815260206004820181905260248201527f4f776e61626c653a2063616c6c6572206973206e6f7420746865206f776e657260448201526064016101d2565b600080546001600160a01b038381166001600160a01b0319831681178455604051919092169283917f8be0079c531659141344cd1fd0a4f28419497f9722a3daafe3b4186f6b6457e09190a35050565b6000602082840312156102a357600080fd5b81356001600160a01b03811681146102ba57600080fd5b939250505056fea2646970667358221220e12e53d86e76f81c5add33358fc10817454fd417af7f6f2d17ec2c86f50bc80164736f6c63430008110033",
    "sourcePath": "/Users/yusufbenli/MedipolDAO/Digiathon/MedipolDAO-Digiathon-Contracts/contracts/KYC.sol",
    "compiler": {
        "name": "solc",
        "version": "0.8.17+commit.8df45f5f"
    },
    "functionHashes": {
        "allowAddress(address)": "08af4d88",
        "allowed(address)": "d63a8e11",
        "owner()": "8da5cb5b",
        "renounceOwnership()": "715018a6",
        "revokeAddress(address)": "317a7aec",
        "transferOwnership(address)": "f2fde38b"
    },
    "gasEstimates": {
        "creation": {
            "codeDepositCost": "151800",
            "executionCost": "26037",
            "totalCost": "177837"
        },
        "external": {
            "allowAddress(address)": "26729",
            "allowed(address)": "2562",
            "owner()": "2334",
            "renounceOwnership()": "infinite",
            "revokeAddress(address)": "26733",
            "transferOwnership(address)": "28386"
        }
    }
}