{
    "contractName": "MyToken",
    "abi": [
        {
            "inputs": [
                {
                    "internalType": "string",
                    "name": "_uri",
                    "type": "string"
                },
                {
                    "internalType": "address",
                    "name": "_kyc",
                    "type": "address"
                }
            ],
            "stateMutability": "nonpayable",
            "type": "constructor"
        },
        {
            "anonymous": false,
            "inputs": [
                {
                    "indexed": true,
                    "internalType": "address",
                    "name": "account",
                    "type": "address"
                },
                {
                    "indexed": true,
                    "internalType": "address",
                    "name": "operator",
                    "type": "address"
                },
                {
                    "indexed": false,
                    "internalType": "bool",
                    "name": "approved",
                    "type": "bool"
                }
            ],
            "name": "ApprovalForAll",
            "type": "event"
        },
        {
            "anonymous": false,
            "inputs": [
                {
                    "indexed": true,
                    "internalType": "address",
                    "name": "previousOwner",
                    "type": "address"
                },
                {
                    "indexed": true,
                    "internalType": "address",
                    "name": "newOwner",
                    "type": "address"
                }
            ],
            "name": "OwnershipTransferred",
            "type": "event"
        },
        {
            "anonymous": false,
            "inputs": [
                {
                    "indexed": true,
                    "internalType": "address",
                    "name": "operator",
                    "type": "address"
                },
                {
                    "indexed": true,
                    "internalType": "address",
                    "name": "from",
                    "type": "address"
                },
                {
                    "indexed": true,
                    "internalType": "address",
                    "name": "to",
                    "type": "address"
                },
                {
                    "indexed": false,
                    "internalType": "uint256[]",
                    "name": "ids",
                    "type": "uint256[]"
                },
                {
                    "indexed": false,
                    "internalType": "uint256[]",
                    "name": "values",
                    "type": "uint256[]"
                }
            ],
            "name": "TransferBatch",
            "type": "event"
        },
        {
            "anonymous": false,
            "inputs": [
                {
                    "indexed": true,
                    "internalType": "address",
                    "name": "operator",
                    "type": "address"
                },
                {
                    "indexed": true,
                    "internalType": "address",
                    "name": "from",
                    "type": "address"
                },
                {
                    "indexed": true,
                    "internalType": "address",
                    "name": "to",
                    "type": "address"
                },
                {
                    "indexed": false,
                    "internalType": "uint256",
                    "name": "id",
                    "type": "uint256"
                },
                {
                    "indexed": false,
                    "internalType": "uint256",
                    "name": "value",
                    "type": "uint256"
                }
            ],
            "name": "TransferSingle",
            "type": "event"
        },
        {
            "anonymous": false,
            "inputs": [
                {
                    "indexed": false,
                    "internalType": "string",
                    "name": "value",
                    "type": "string"
                },
                {
                    "indexed": true,
                    "internalType": "uint256",
                    "name": "id",
                    "type": "uint256"
                }
            ],
            "name": "URI",
            "type": "event"
        },
        {
            "inputs": [
                {
                    "internalType": "address",
                    "name": "account",
                    "type": "address"
                },
                {
                    "internalType": "uint256",
                    "name": "id",
                    "type": "uint256"
                }
            ],
            "name": "balanceOf",
            "outputs": [
                {
                    "internalType": "uint256",
                    "name": "",
                    "type": "uint256"
                }
            ],
            "stateMutability": "view",
            "type": "function"
        },
        {
            "inputs": [
                {
                    "internalType": "address[]",
                    "name": "accounts",
                    "type": "address[]"
                },
                {
                    "internalType": "uint256[]",
                    "name": "ids",
                    "type": "uint256[]"
                }
            ],
            "name": "balanceOfBatch",
            "outputs": [
                {
                    "internalType": "uint256[]",
                    "name": "",
                    "type": "uint256[]"
                }
            ],
            "stateMutability": "view",
            "type": "function"
        },
        {
            "inputs": [
                {
                    "internalType": "uint256",
                    "name": "id",
                    "type": "uint256"
                }
            ],
            "name": "exists",
            "outputs": [
                {
                    "internalType": "bool",
                    "name": "",
                    "type": "bool"
                }
            ],
            "stateMutability": "view",
            "type": "function"
        },
        {
            "inputs": [
                {
                    "internalType": "address",
                    "name": "account",
                    "type": "address"
                },
                {
                    "internalType": "address",
                    "name": "operator",
                    "type": "address"
                }
            ],
            "name": "isApprovedForAll",
            "outputs": [
                {
                    "internalType": "bool",
                    "name": "",
                    "type": "bool"
                }
            ],
            "stateMutability": "view",
            "type": "function"
        },
        {
            "inputs": [],
            "name": "kyc",
            "outputs": [
                {
                    "internalType": "contract IKYC",
                    "name": "",
                    "type": "address"
                }
            ],
            "stateMutability": "view",
            "type": "function"
        },
        {
            "inputs": [
                {
                    "internalType": "address",
                    "name": "account",
                    "type": "address"
                },
                {
                    "internalType": "uint256",
                    "name": "id",
                    "type": "uint256"
                },
                {
                    "internalType": "uint256",
                    "name": "amount",
                    "type": "uint256"
                },
                {
                    "internalType": "bytes",
                    "name": "data",
                    "type": "bytes"
                }
            ],
            "name": "mint",
            "outputs": [],
            "stateMutability": "nonpayable",
            "type": "function"
        },
        {
            "inputs": [
                {
                    "internalType": "address",
                    "name": "to",
                    "type": "address"
                },
                {
                    "internalType": "uint256[]",
                    "name": "ids",
                    "type": "uint256[]"
                },
                {
                    "internalType": "uint256[]",
                    "name": "amounts",
                    "type": "uint256[]"
                },
                {
                    "internalType": "bytes",
                    "name": "data",
                    "type": "bytes"
                }
            ],
            "name": "mintBatch",
            "outputs": [],
            "stateMutability": "nonpayable",
            "type": "function"
        },
        {
            "inputs": [],
            "name": "owner",
            "outputs": [
                {
                    "internalType": "address",
                    "name": "",
                    "type": "address"
                }
            ],
            "stateMutability": "view",
            "type": "function"
        },
        {
            "inputs": [],
            "name": "renounceOwnership",
            "outputs": [],
            "stateMutability": "nonpayable",
            "type": "function"
        },
        {
            "inputs": [
                {
                    "internalType": "address",
                    "name": "from",
                    "type": "address"
                },
                {
                    "internalType": "address",
                    "name": "to",
                    "type": "address"
                },
                {
                    "internalType": "uint256[]",
                    "name": "ids",
                    "type": "uint256[]"
                },
                {
                    "internalType": "uint256[]",
                    "name": "amounts",
                    "type": "uint256[]"
                },
                {
                    "internalType": "bytes",
                    "name": "data",
                    "type": "bytes"
                }
            ],
            "name": "safeBatchTransferFrom",
            "outputs": [],
            "stateMutability": "nonpayable",
            "type": "function"
        },
        {
            "inputs": [
                {
                    "internalType": "address",
                    "name": "from",
                    "type": "address"
                },
                {
                    "internalType": "address",
                    "name": "to",
                    "type": "address"
                },
                {
                    "internalType": "uint256",
                    "name": "id",
                    "type": "uint256"
                },
                {
                    "internalType": "uint256",
                    "name": "amount",
                    "type": "uint256"
                },
                {
                    "internalType": "bytes",
                    "name": "data",
                    "type": "bytes"
                }
            ],
            "name": "safeTransferFrom",
            "outputs": [],
            "stateMutability": "nonpayable",
            "type": "function"
        },
        {
            "inputs": [
                {
                    "internalType": "address",
                    "name": "operator",
                    "type": "address"
                },
                {
                    "internalType": "bool",
                    "name": "approved",
                    "type": "bool"
                }
            ],
            "name": "setApprovalForAll",
            "outputs": [],
            "stateMutability": "nonpayable",
            "type": "function"
        },
        {
            "inputs": [
                {
                    "internalType": "string",
                    "name": "newuri",
                    "type": "string"
                }
            ],
            "name": "setURI",
            "outputs": [],
            "stateMutability": "nonpayable",
            "type": "function"
        },
        {
            "inputs": [
                {
                    "internalType": "bytes4",
                    "name": "interfaceId",
                    "type": "bytes4"
                }
            ],
            "name": "supportsInterface",
            "outputs": [
                {
                    "internalType": "bool",
                    "name": "",
                    "type": "bool"
                }
            ],
            "stateMutability": "view",
            "type": "function"
        },
        {
            "inputs": [
                {
                    "internalType": "uint256",
                    "name": "id",
                    "type": "uint256"
                }
            ],
            "name": "totalSupply",
            "outputs": [
                {
                    "internalType": "uint256",
                    "name": "",
                    "type": "uint256"
                }
            ],
            "stateMutability": "view",
            "type": "function"
        },
        {
            "inputs": [
                {
                    "internalType": "address",
                    "name": "newOwner",
                    "type": "address"
                }
            ],
            "name": "transferOwnership",
            "outputs": [],
            "stateMutability": "nonpayable",
            "type": "function"
        },
        {
            "inputs": [
                {
                    "internalType": "uint256",
                    "name": "",
                    "type": "uint256"
                }
            ],
            "name": "uri",
            "outputs": [
                {
                    "internalType": "string",
                    "name": "",
                    "type": "string"
                }
            ],
            "stateMutability": "view",
            "type": "function"
        }
    ],
    "bytecode": "60806040523480156200001157600080fd5b506040516200203b3803806200203b833981016040819052620000349162000105565b6040805180820190915260048152635f75726960e01b60208201526200005a816200006e565b50620000663362000080565b505062000348565b60026200007c82826200027c565b5050565b600380546001600160a01b038381166001600160a01b0319831681179093556040519116919082907f8be0079c531659141344cd1fd0a4f28419497f9722a3daafe3b4186f6b6457e090600090a35050565b634e487b7160e01b600052604160045260246000fd5b80516001600160a01b03811681146200010057600080fd5b919050565b600080604083850312156200011957600080fd5b82516001600160401b03808211156200013157600080fd5b818501915085601f8301126200014657600080fd5b8151818111156200015b576200015b620000d2565b604051601f8201601f19908116603f01168101908382118183101715620001865762000186620000d2565b81604052828152602093508884848701011115620001a357600080fd5b600091505b82821015620001c75784820184015181830185015290830190620001a8565b6000848483010152809650505050620001e2818601620000e8565b925050509250929050565b600181811c908216806200020257607f821691505b6020821081036200022357634e487b7160e01b600052602260045260246000fd5b50919050565b601f8211156200027757600081815260208120601f850160051c81016020861015620002525750805b601f850160051c820191505b8181101562000273578281556001016200025e565b5050505b505050565b81516001600160401b03811115620002985762000298620000d2565b620002b081620002a98454620001ed565b8462000229565b602080601f831160018114620002e85760008415620002cf5750858301515b600019600386901b1c1916600185901b17855562000273565b600085815260208120601f198616915b828110156200031957888601518255948401946001909101908401620002f8565b5085821015620003385787850151600019600388901b60f8161c191681555b5050505050600190811b01905550565b611ce380620003586000396000f3fe608060405234801561001057600080fd5b506004361061010a5760003560e01c8063715018a6116100a2578063a22cb46511610071578063a22cb46514610248578063bd85b0391461025b578063e985e9c51461027b578063f242432a146102b7578063f2fde38b146102ca57600080fd5b8063715018a6146101f5578063731133e9146101fd5780638da5cb5b1461021057806390d6b45f1461023557600080fd5b80631f7fdffa116100de5780631f7fdffa1461018d5780632eb2c2d6146101a05780634e1273f4146101b35780634f558e79146101d357600080fd5b8062fdd58e1461010f57806301ffc9a71461013557806302fe5305146101585780630e89341c1461016d575b600080fd5b61012261011d3660046111b1565b6102dd565b6040519081526020015b60405180910390f35b6101486101433660046111f1565b610376565b604051901515815260200161012c565b61016b6101663660046112b6565b6103c6565b005b61018061017b366004611307565b6103da565b60405161012c9190611366565b61016b61019b36600461142e565b61046e565b61016b6101ae3660046114c7565b610488565b6101c66101c1366004611571565b6104d4565b60405161012c9190611677565b6101486101e1366004611307565b600090815260046020526040902054151590565b61016b6105fe565b61016b61020b36600461168a565b610612565b6003546001600160a01b03165b6040516001600160a01b03909116815260200161012c565b60055461021d906001600160a01b031681565b61016b6102563660046116df565b610626565b610122610269366004611307565b60009081526004602052604090205490565b61014861028936600461171b565b6001600160a01b03918216600090815260016020908152604080832093909416825291909152205460ff1690565b61016b6102c536600461174e565b610635565b61016b6102d83660046117b3565b61067a565b60006001600160a01b03831661034d5760405162461bcd60e51b815260206004820152602a60248201527f455243313135353a2061646472657373207a65726f206973206e6f742061207660448201526930b634b21037bbb732b960b11b60648201526084015b60405180910390fd5b506000818152602081815260408083206001600160a01b03861684529091529020545b92915050565b60006001600160e01b03198216636cdb3d1360e11b14806103a757506001600160e01b031982166303a24d0760e21b145b8061037057506301ffc9a760e01b6001600160e01b0319831614610370565b6103ce6106f0565b6103d78161074a565b50565b6060600280546103e9906117ce565b80601f0160208091040260200160405190810160405280929190818152602001828054610415906117ce565b80156104625780601f1061043757610100808354040283529160200191610462565b820191906000526020600020905b81548152906001019060200180831161044557829003601f168201915b50505050509050919050565b6104766106f0565b61048284848484610756565b50505050565b6001600160a01b0385163314806104a457506104a48533610289565b6104c05760405162461bcd60e51b815260040161034490611808565b6104cd85858585856108b0565b5050505050565b606081518351146105395760405162461bcd60e51b815260206004820152602960248201527f455243313135353a206163636f756e747320616e6420696473206c656e677468604482015268040dad2e6dac2e8c6d60bb1b6064820152608401610344565b6000835167ffffffffffffffff81111561055557610555611215565b60405190808252806020026020018201604052801561057e578160200160208202803683370190505b50905060005b84518110156105f6576105c98582815181106105a2576105a2611856565b60200260200101518583815181106105bc576105bc611856565b60200260200101516102dd565b8282815181106105db576105db611856565b60209081029190910101526105ef81611882565b9050610584565b509392505050565b6106066106f0565b6106106000610a5a565b565b61061a6106f0565b61048284848484610aac565b610631338383610b95565b5050565b6001600160a01b03851633148061065157506106518533610289565b61066d5760405162461bcd60e51b815260040161034490611808565b6104cd8585858585610c75565b6106826106f0565b6001600160a01b0381166106e75760405162461bcd60e51b815260206004820152602660248201527f4f776e61626c653a206e6577206f776e657220697320746865207a65726f206160448201526564647265737360d01b6064820152608401610344565b6103d781610a5a565b6003546001600160a01b031633146106105760405162461bcd60e51b815260206004820181905260248201527f4f776e61626c653a2063616c6c6572206973206e6f7420746865206f776e65726044820152606401610344565b600261063182826118e6565b6001600160a01b03841661077c5760405162461bcd60e51b8152600401610344906119a6565b815183511461079d5760405162461bcd60e51b8152600401610344906119e7565b336107ad81600087878787610dad565b60005b8451811015610848578381815181106107cb576107cb611856565b60200260200101516000808784815181106107e8576107e8611856565b602002602001015181526020019081526020016000206000886001600160a01b03166001600160a01b0316815260200190815260200160002060008282546108309190611a2f565b9091555081905061084081611882565b9150506107b0565b50846001600160a01b031660006001600160a01b0316826001600160a01b03167f4a39dc06d4c0dbc64b70af90fd698a233a518aa5d07e595d983b8c0526c8f7fb8787604051610899929190611a42565b60405180910390a46104cd81600087878787610dbb565b81518351146108d15760405162461bcd60e51b8152600401610344906119e7565b6001600160a01b0384166108f75760405162461bcd60e51b815260040161034490611a70565b33610906818787878787610dad565b60005b84518110156109ec57600085828151811061092657610926611856565b60200260200101519050600085838151811061094457610944611856565b602090810291909101810151600084815280835260408082206001600160a01b038e1683529093529190912054909150818110156109945760405162461bcd60e51b815260040161034490611ab5565b6000838152602081815260408083206001600160a01b038e8116855292528083208585039055908b168252812080548492906109d1908490611a2f565b92505081905550505050806109e590611882565b9050610909565b50846001600160a01b0316866001600160a01b0316826001600160a01b03167f4a39dc06d4c0dbc64b70af90fd698a233a518aa5d07e595d983b8c0526c8f7fb8787604051610a3c929190611a42565b60405180910390a4610a52818787878787610dbb565b505050505050565b600380546001600160a01b038381166001600160a01b0319831681179093556040519116919082907f8be0079c531659141344cd1fd0a4f28419497f9722a3daafe3b4186f6b6457e090600090a35050565b6001600160a01b038416610ad25760405162461bcd60e51b8152600401610344906119a6565b336000610ade85610f16565b90506000610aeb85610f16565b9050610afc83600089858589610dad565b6000868152602081815260408083206001600160a01b038b16845290915281208054879290610b2c908490611a2f565b909155505060408051878152602081018790526001600160a01b03808a1692600092918716917fc3d58168c5ae7397731d063d5bbf3d657854427343f4c083240f7aacaa2d0f62910160405180910390a4610b8c83600089898989610f61565b50505050505050565b816001600160a01b0316836001600160a01b031603610c085760405162461bcd60e51b815260206004820152602960248201527f455243313135353a2073657474696e6720617070726f76616c20737461747573604482015268103337b91039b2b63360b91b6064820152608401610344565b6001600160a01b03838116600081815260016020908152604080832094871680845294825291829020805460ff191686151590811790915591519182527f17307eab39ab6107e8899845ad3d59bd9653f200f220920489ca2b5937696c31910160405180910390a3505050565b6001600160a01b038416610c9b5760405162461bcd60e51b815260040161034490611a70565b336000610ca785610f16565b90506000610cb485610f16565b9050610cc4838989858589610dad565b6000868152602081815260408083206001600160a01b038c16845290915290205485811015610d055760405162461bcd60e51b815260040161034490611ab5565b6000878152602081815260408083206001600160a01b038d8116855292528083208985039055908a16825281208054889290610d42908490611a2f565b909155505060408051888152602081018890526001600160a01b03808b16928c821692918816917fc3d58168c5ae7397731d063d5bbf3d657854427343f4c083240f7aacaa2d0f62910160405180910390a4610da2848a8a8a8a8a610f61565b505050505050505050565b610a5286868686868661101c565b6001600160a01b0384163b15610a525760405163bc197c8160e01b81526001600160a01b0385169063bc197c8190610dff9089908990889088908890600401611aff565b6020604051808303816000875af1925050508015610e3a575060408051601f3d908101601f19168201909252610e3791810190611b5d565b60015b610ee657610e46611b7a565b806308c379a003610e7f5750610e5a611b96565b80610e655750610e81565b8060405162461bcd60e51b81526004016103449190611366565b505b60405162461bcd60e51b815260206004820152603460248201527f455243313135353a207472616e7366657220746f206e6f6e2d455243313135356044820152732932b1b2b4bb32b91034b6b83632b6b2b73a32b960611b6064820152608401610344565b6001600160e01b0319811663bc197c8160e01b14610b8c5760405162461bcd60e51b815260040161034490611c20565b60408051600180825281830190925260609160009190602080830190803683370190505090508281600081518110610f5057610f50611856565b602090810291909101015292915050565b6001600160a01b0384163b15610a525760405163f23a6e6160e01b81526001600160a01b0385169063f23a6e6190610fa59089908990889088908890600401611c68565b6020604051808303816000875af1925050508015610fe0575060408051601f3d908101601f19168201909252610fdd91810190611b5d565b60015b610fec57610e46611b7a565b6001600160e01b0319811663f23a6e6160e01b14610b8c5760405162461bcd60e51b815260040161034490611c20565b6001600160a01b0385166110a35760005b83518110156110a15782818151811061104857611048611856565b60200260200101516004600086848151811061106657611066611856565b60200260200101518152602001908152602001600020600082825461108b9190611a2f565b9091555061109a905081611882565b905061102d565b505b6001600160a01b038416610a525760005b8351811015610b8c5760008482815181106110d1576110d1611856565b6020026020010151905060008483815181106110ef576110ef611856565b60200260200101519050600060046000848152602001908152602001600020549050818110156111725760405162461bcd60e51b815260206004820152602860248201527f455243313135353a206275726e20616d6f756e74206578636565647320746f74604482015267616c537570706c7960c01b6064820152608401610344565b6000928352600460205260409092209103905561118e81611882565b90506110b4565b80356001600160a01b03811681146111ac57600080fd5b919050565b600080604083850312156111c457600080fd5b6111cd83611195565b946020939093013593505050565b6001600160e01b0319811681146103d757600080fd5b60006020828403121561120357600080fd5b813561120e816111db565b9392505050565b634e487b7160e01b600052604160045260246000fd5b601f8201601f1916810167ffffffffffffffff8111828210171561125157611251611215565b6040525050565b600067ffffffffffffffff83111561127257611272611215565b604051611289601f8501601f19166020018261122b565b80915083815284848401111561129e57600080fd5b83836020830137600060208583010152509392505050565b6000602082840312156112c857600080fd5b813567ffffffffffffffff8111156112df57600080fd5b8201601f810184136112f057600080fd5b6112ff84823560208401611258565b949350505050565b60006020828403121561131957600080fd5b5035919050565b6000815180845260005b818110156113465760208185018101518683018201520161132a565b506000602082860101526020601f19601f83011685010191505092915050565b60208152600061120e6020830184611320565b600067ffffffffffffffff82111561139357611393611215565b5060051b60200190565b600082601f8301126113ae57600080fd5b813560206113bb82611379565b6040516113c8828261122b565b83815260059390931b85018201928281019150868411156113e857600080fd5b8286015b8481101561140357803583529183019183016113ec565b509695505050505050565b600082601f83011261141f57600080fd5b61120e83833560208501611258565b6000806000806080858703121561144457600080fd5b61144d85611195565b9350602085013567ffffffffffffffff8082111561146a57600080fd5b6114768883890161139d565b9450604087013591508082111561148c57600080fd5b6114988883890161139d565b935060608701359150808211156114ae57600080fd5b506114bb8782880161140e565b91505092959194509250565b600080600080600060a086880312156114df57600080fd5b6114e886611195565b94506114f660208701611195565b9350604086013567ffffffffffffffff8082111561151357600080fd5b61151f89838a0161139d565b9450606088013591508082111561153557600080fd5b61154189838a0161139d565b9350608088013591508082111561155757600080fd5b506115648882890161140e565b9150509295509295909350565b6000806040838503121561158457600080fd5b823567ffffffffffffffff8082111561159c57600080fd5b818501915085601f8301126115b057600080fd5b813560206115bd82611379565b6040516115ca828261122b565b83815260059390931b85018201928281019150898411156115ea57600080fd5b948201945b8386101561160f5761160086611195565b825294820194908201906115ef565b9650508601359250508082111561162557600080fd5b506116328582860161139d565b9150509250929050565b600081518084526020808501945080840160005b8381101561166c57815187529582019590820190600101611650565b509495945050505050565b60208152600061120e602083018461163c565b600080600080608085870312156116a057600080fd5b6116a985611195565b93506020850135925060408501359150606085013567ffffffffffffffff8111156116d357600080fd5b6114bb8782880161140e565b600080604083850312156116f257600080fd5b6116fb83611195565b91506020830135801515811461171057600080fd5b809150509250929050565b6000806040838503121561172e57600080fd5b61173783611195565b915061174560208401611195565b90509250929050565b600080600080600060a0868803121561176657600080fd5b61176f86611195565b945061177d60208701611195565b93506040860135925060608601359150608086013567ffffffffffffffff8111156117a757600080fd5b6115648882890161140e565b6000602082840312156117c557600080fd5b61120e82611195565b600181811c908216806117e257607f821691505b60208210810361180257634e487b7160e01b600052602260045260246000fd5b50919050565b6020808252602e908201527f455243313135353a2063616c6c6572206973206e6f7420746f6b656e206f776e60408201526d195c881bdc88185c1c1c9bdd995960921b606082015260800190565b634e487b7160e01b600052603260045260246000fd5b634e487b7160e01b600052601160045260246000fd5b6000600182016118945761189461186c565b5060010190565b601f8211156118e157600081815260208120601f850160051c810160208610156118c25750805b601f850160051c820191505b81811015610a52578281556001016118ce565b505050565b815167ffffffffffffffff81111561190057611900611215565b6119148161190e84546117ce565b8461189b565b602080601f83116001811461194957600084156119315750858301515b600019600386901b1c1916600185901b178555610a52565b600085815260208120601f198616915b8281101561197857888601518255948401946001909101908401611959565b50858210156119965787850151600019600388901b60f8161c191681555b5050505050600190811b01905550565b60208082526021908201527f455243313135353a206d696e7420746f20746865207a65726f206164647265736040820152607360f81b606082015260800190565b60208082526028908201527f455243313135353a2069647320616e6420616d6f756e7473206c656e677468206040820152670dad2e6dac2e8c6d60c31b606082015260800190565b808201808211156103705761037061186c565b604081526000611a55604083018561163c565b8281036020840152611a67818561163c565b95945050505050565b60208082526025908201527f455243313135353a207472616e7366657220746f20746865207a65726f206164604082015264647265737360d81b606082015260800190565b6020808252602a908201527f455243313135353a20696e73756666696369656e742062616c616e636520666f60408201526939103a3930b739b332b960b11b606082015260800190565b6001600160a01b0386811682528516602082015260a060408201819052600090611b2b9083018661163c565b8281036060840152611b3d818661163c565b90508281036080840152611b518185611320565b98975050505050505050565b600060208284031215611b6f57600080fd5b815161120e816111db565b600060033d1115611b935760046000803e5060005160e01c5b90565b600060443d1015611ba45790565b6040516003193d81016004833e81513d67ffffffffffffffff8160248401118184111715611bd457505050505090565b8285019150815181811115611bec5750505050505090565b843d8701016020828501011115611c065750505050505090565b611c156020828601018761122b565b509095945050505050565b60208082526028908201527f455243313135353a204552433131353552656365697665722072656a656374656040820152676420746f6b656e7360c01b606082015260800190565b6001600160a01b03868116825285166020820152604081018490526060810183905260a060808201819052600090611ca290830184611320565b97965050505050505056fea2646970667358221220c3f435ecc3a028fe3cff2244587114fcdda02723c0616c7b5dea8aff6c37d47464736f6c63430008110033",
    "sourcePath": "/Users/yusufbenli/MedipolDAO/Digiathon/MedipolDAO-Digiathon-Contracts/contracts/NFT.sol",
    "compiler": {
        "name": "solc",
        "version": "0.8.17+commit.8df45f5f"
    },
    "functionHashes": {
        "balanceOf(address,uint256)": "00fdd58e",
        "balanceOfBatch(address[],uint256[])": "4e1273f4",
        "exists(uint256)": "4f558e79",
        "isApprovedForAll(address,address)": "e985e9c5",
        "kyc()": "90d6b45f",
        "mint(address,uint256,uint256,bytes)": "731133e9",
        "mintBatch(address,uint256[],uint256[],bytes)": "1f7fdffa",
        "owner()": "8da5cb5b",
        "renounceOwnership()": "715018a6",
        "safeBatchTransferFrom(address,address,uint256[],uint256[],bytes)": "2eb2c2d6",
        "safeTransferFrom(address,address,uint256,uint256,bytes)": "f242432a",
        "setApprovalForAll(address,bool)": "a22cb465",
        "setURI(string)": "02fe5305",
        "supportsInterface(bytes4)": "01ffc9a7",
        "totalSupply(uint256)": "bd85b039",
        "transferOwnership(address)": "f2fde38b",
        "uri(uint256)": "0e89341c"
    },
    "gasEstimates": {
        "creation": {
            "codeDepositCost": "1479000",
            "executionCost": "infinite",
            "totalCost": "infinite"
        },
        "external": {
            "balanceOf(address,uint256)": "2700",
            "balanceOfBatch(address[],uint256[])": "infinite",
            "exists(uint256)": "2539",
            "isApprovedForAll(address,address)": "infinite",
            "kyc()": "2426",
            "mint(address,uint256,uint256,bytes)": "infinite",
            "mintBatch(address,uint256[],uint256[],bytes)": "infinite",
            "owner()": "2387",
            "renounceOwnership()": "infinite",
            "safeBatchTransferFrom(address,address,uint256[],uint256[],bytes)": "infinite",
            "safeTransferFrom(address,address,uint256,uint256,bytes)": "infinite",
            "setApprovalForAll(address,bool)": "26705",
            "setURI(string)": "infinite",
            "supportsInterface(bytes4)": "578",
            "totalSupply(uint256)": "2471",
            "transferOwnership(address)": "28446",
            "uri(uint256)": "infinite"
        },
        "internal": {
            "_beforeTokenTransfer(address,address,address,uint256[] memory,uint256[] memory,bytes memory)": "infinite"
        }
    }
}